{
  "_format": "hh-sol-artifact-1",
  "contractName": "EventTicketing",
  "sourceName": "contracts/EventTicketing.sol",
  "abi": [
    {
      "inputs": [],
      "stateMutability": "nonpayable",
      "type": "constructor"
    },
    {
      "inputs": [],
      "name": "EventDoesNotExist",
      "type": "error"
    },
    {
      "inputs": [],
      "name": "EventNotActive",
      "type": "error"
    },
    {
      "inputs": [],
      "name": "EventSoldOut",
      "type": "error"
    },
    {
      "inputs": [],
      "name": "InsufficientPayment",
      "type": "error"
    },
    {
      "inputs": [],
      "name": "NotOwner",
      "type": "error"
    },
    {
      "inputs": [],
      "name": "NotTicketOwner",
      "type": "error"
    },
    {
      "inputs": [],
      "name": "TicketDoesNotExist",
      "type": "error"
    },
    {
      "anonymous": false,
      "inputs": [
        {
          "indexed": true,
          "internalType": "uint256",
          "name": "eventId",
          "type": "uint256"
        },
        {
          "indexed": false,
          "internalType": "string",
          "name": "name",
          "type": "string"
        },
        {
          "indexed": false,
          "internalType": "address",
          "name": "organizer",
          "type": "address"
        }
      ],
      "name": "EventCreated",
      "type": "event"
    },
    {
      "anonymous": false,
      "inputs": [
        {
          "indexed": true,
          "internalType": "uint256",
          "name": "ticketId",
          "type": "uint256"
        },
        {
          "indexed": true,
          "internalType": "uint256",
          "name": "eventId",
          "type": "uint256"
        },
        {
          "indexed": false,
          "internalType": "address",
          "name": "buyer",
          "type": "address"
        }
      ],
      "name": "TicketMinted",
      "type": "event"
    },
    {
      "anonymous": false,
      "inputs": [
        {
          "indexed": true,
          "internalType": "uint256",
          "name": "ticketId",
          "type": "uint256"
        }
      ],
      "name": "TicketUsed",
      "type": "event"
    },
    {
      "inputs": [
        {
          "internalType": "address",
          "name": "",
          "type": "address"
        }
      ],
      "name": "balanceOf",
      "outputs": [
        {
          "internalType": "uint256",
          "name": "",
          "type": "uint256"
        }
      ],
      "stateMutability": "view",
      "type": "function"
    },
    {
      "inputs": [
        {
          "internalType": "uint256",
          "name": "eventId",
          "type": "uint256"
        }
      ],
      "name": "buyTicket",
      "outputs": [],
      "stateMutability": "payable",
      "type": "function"
    },
    {
      "inputs": [
        {
          "internalType": "uint256",
          "name": "eventId",
          "type": "uint256"
        }
      ],
      "name": "cancelEvent",
      "outputs": [],
      "stateMutability": "nonpayable",
      "type": "function"
    },
    {
      "inputs": [
        {
          "internalType": "string",
          "name": "_name",
          "type": "string"
        },
        {
          "internalType": "uint256",
          "name": "_eventDate",
          "type": "uint256"
        },
        {
          "internalType": "uint256",
          "name": "_ticketPrice",
          "type": "uint256"
        },
        {
          "internalType": "uint256",
          "name": "_maxTickets",
          "type": "uint256"
        }
      ],
      "name": "createEvent",
      "outputs": [
        {
          "internalType": "uint256",
          "name": "",
          "type": "uint256"
        }
      ],
      "stateMutability": "nonpayable",
      "type": "function"
    },
    {
      "inputs": [],
      "name": "eventCounter",
      "outputs": [
        {
          "internalType": "uint256",
          "name": "",
          "type": "uint256"
        }
      ],
      "stateMutability": "view",
      "type": "function"
    },
    {
      "inputs": [
        {
          "internalType": "uint256",
          "name": "",
          "type": "uint256"
        }
      ],
      "name": "events",
      "outputs": [
        {
          "internalType": "string",
          "name": "name",
          "type": "string"
        },
        {
          "internalType": "uint256",
          "name": "eventDate",
          "type": "uint256"
        },
        {
          "internalType": "uint256",
          "name": "ticketPrice",
          "type": "uint256"
        },
        {
          "internalType": "uint256",
          "name": "maxTickets",
          "type": "uint256"
        },
        {
          "internalType": "uint256",
          "name": "soldTickets",
          "type": "uint256"
        },
        {
          "internalType": "bool",
          "name": "isActive",
          "type": "bool"
        },
        {
          "internalType": "address",
          "name": "organizer",
          "type": "address"
        }
      ],
      "stateMutability": "view",
      "type": "function"
    },
    {
      "inputs": [
        {
          "internalType": "uint256",
          "name": "eventId",
          "type": "uint256"
        }
      ],
      "name": "getEvent",
      "outputs": [
        {
          "internalType": "string",
          "name": "name",
          "type": "string"
        },
        {
          "internalType": "uint256",
          "name": "eventDate",
          "type": "uint256"
        },
        {
          "internalType": "uint256",
          "name": "ticketPrice",
          "type": "uint256"
        },
        {
          "internalType": "uint256",
          "name": "maxTickets",
          "type": "uint256"
        },
        {
          "internalType": "uint256",
          "name": "soldTickets",
          "type": "uint256"
        },
        {
          "internalType": "bool",
          "name": "isActive",
          "type": "bool"
        },
        {
          "internalType": "address",
          "name": "organizer",
          "type": "address"
        }
      ],
      "stateMutability": "view",
      "type": "function"
    },
    {
      "inputs": [
        {
          "internalType": "uint256",
          "name": "ticketId",
          "type": "uint256"
        }
      ],
      "name": "getTicket",
      "outputs": [
        {
          "internalType": "uint256",
          "name": "eventId",
          "type": "uint256"
        },
        {
          "internalType": "address",
          "name": "ticketOwner",
          "type": "address"
        },
        {
          "internalType": "bool",
          "name": "isUsed",
          "type": "bool"
        }
      ],
      "stateMutability": "view",
      "type": "function"
    },
    {
      "inputs": [
        {
          "internalType": "address",
          "name": "user",
          "type": "address"
        },
        {
          "internalType": "uint256",
          "name": "eventId",
          "type": "uint256"
        }
      ],
      "name": "hasTicketForEvent",
      "outputs": [
        {
          "internalType": "bool",
          "name": "",
          "type": "bool"
        }
      ],
      "stateMutability": "view",
      "type": "function"
    },
    {
      "inputs": [],
      "name": "owner",
      "outputs": [
        {
          "internalType": "address",
          "name": "",
          "type": "address"
        }
      ],
      "stateMutability": "view",
      "type": "function"
    },
    {
      "inputs": [
        {
          "internalType": "uint256",
          "name": "",
          "type": "uint256"
        }
      ],
      "name": "tickets",
      "outputs": [
        {
          "internalType": "uint256",
          "name": "eventId",
          "type": "uint256"
        },
        {
          "internalType": "address",
          "name": "owner",
          "type": "address"
        },
        {
          "internalType": "bool",
          "name": "isUsed",
          "type": "bool"
        }
      ],
      "stateMutability": "view",
      "type": "function"
    },
    {
      "inputs": [
        {
          "internalType": "uint256",
          "name": "ticketId",
          "type": "uint256"
        },
        {
          "internalType": "address",
          "name": "to",
          "type": "address"
        }
      ],
      "name": "transferTicket",
      "outputs": [],
      "stateMutability": "nonpayable",
      "type": "function"
    },
    {
      "inputs": [
        {
          "internalType": "uint256",
          "name": "ticketId",
          "type": "uint256"
        }
      ],
      "name": "useTicket",
      "outputs": [],
      "stateMutability": "nonpayable",
      "type": "function"
    }
  ],
  "bytecode": "0x6080604052348015600f57600080fd5b50336000806101000a81548173ffffffffffffffffffffffffffffffffffffffff021916908373ffffffffffffffffffffffffffffffffffffffff160217905550611b258061005f6000396000f3fe6080604052600436106100c25760003560e01c8063679ebf1a1161007f57806370a082311161005957806370a082311461028b5780637dc379fa146102c85780638da5cb5b1461030757806395dad48a14610332576100c2565b8063679ebf1a1461020357806367dd74ca1461022c5780636d1884e014610248576100c2565b80630374ab0b146100c75780630b7914301461010457806326606448146101475780633f69babd1461017057806350b447121461019957806352c55db9146101d8575b600080fd5b3480156100d357600080fd5b506100ee60048036038101906100e9919061139c565b61036f565b6040516100fb919061142e565b60405180910390f35b34801561011057600080fd5b5061012b60048036038101906101269190611449565b6104dd565b60405161013e9796959493929190611551565b60405180910390f35b34801561015357600080fd5b5061016e60048036038101906101699190611449565b6105d4565b005b34801561017c57600080fd5b5061019760048036038101906101929190611449565b610709565b005b3480156101a557600080fd5b506101c060048036038101906101bb9190611449565b61086d565b6040516101cf939291906115c7565b60405180910390f35b3480156101e457600080fd5b506101ed6108c4565b6040516101fa919061142e565b60405180910390f35b34801561020f57600080fd5b5061022a6004803603810190610225919061162a565b6108ca565b005b61024660048036038101906102419190611449565b610aa3565b005b34801561025457600080fd5b5061026f600480360381019061026a9190611449565b610e17565b6040516102829796959493929190611551565b60405180910390f35b34801561029757600080fd5b506102b260048036038101906102ad919061166a565b610fe9565b6040516102bf919061142e565b60405180910390f35b3480156102d457600080fd5b506102ef60048036038101906102ea9190611449565b611001565b6040516102fe939291906115c7565b60405180910390f35b34801561031357600080fd5b5061031c6110fb565b6040516103299190611697565b60405180910390f35b34801561033e57600080fd5b50610359600480360381019061035491906116b2565b61111f565b60405161036691906116f2565b60405180910390f35b60008060025490506040518060e00160405280878152602001868152602001858152602001848152602001600081526020016001151581526020013373ffffffffffffffffffffffffffffffffffffffff168152506003600083815260200190815260200160002060008201518160000190816103ec9190611919565b506020820151816001015560408201518160020155606082015181600301556080820151816004015560a08201518160050160006101000a81548160ff02191690831515021790555060c08201518160050160016101000a81548173ffffffffffffffffffffffffffffffffffffffff021916908373ffffffffffffffffffffffffffffffffffffffff1602179055509050506002600081548092919061049290611a1a565b9190505550807f40fb05b814a900c99fa0a76d919dfdeaf3389540e4ca70f97ba40ca9a38f379787336040516104c9929190611a62565b60405180910390a280915050949350505050565b60036020528060005260406000206000915090508060000180546105009061173c565b80601f016020809104026020016040519081016040528092919081815260200182805461052c9061173c565b80156105795780601f1061054e57610100808354040283529160200191610579565b820191906000526020600020905b81548152906001019060200180831161055c57829003601f168201915b5050505050908060010154908060020154908060030154908060040154908060050160009054906101000a900460ff16908060050160019054906101000a900473ffffffffffffffffffffffffffffffffffffffff16905087565b600154811061060f576040517f667ce3b800000000000000000000000000000000000000000000000000000000815260040160405180910390fd5b3373ffffffffffffffffffffffffffffffffffffffff166004600083815260200190815260200160002060010160009054906101000a900473ffffffffffffffffffffffffffffffffffffffff1673ffffffffffffffffffffffffffffffffffffffff16146106aa576040517fe18d39ad00000000000000000000000000000000000000000000000000000000815260040160405180910390fd5b60016004600083815260200190815260200160002060010160146101000a81548160ff021916908315150217905550807f1f5d53e38fbc5a40092861e993062e74fb6dc7acef58356c7b55aa1afd8b350160405160405180910390a250565b806002548110610745576040517f90675ce600000000000000000000000000000000000000000000000000000000815260040160405180910390fd5b3373ffffffffffffffffffffffffffffffffffffffff166003600084815260200190815260200160002060050160019054906101000a900473ffffffffffffffffffffffffffffffffffffffff1673ffffffffffffffffffffffffffffffffffffffff1614158015610803575060008054906101000a900473ffffffffffffffffffffffffffffffffffffffff1673ffffffffffffffffffffffffffffffffffffffff163373ffffffffffffffffffffffffffffffffffffffff1614155b1561083a576040517f30cd747100000000000000000000000000000000000000000000000000000000815260040160405180910390fd5b60006003600084815260200190815260200160002060050160006101000a81548160ff0219169083151502179055505050565b60046020528060005260406000206000915090508060000154908060010160009054906101000a900473ffffffffffffffffffffffffffffffffffffffff16908060010160149054906101000a900460ff16905083565b60025481565b6001548210610905576040517f667ce3b800000000000000000000000000000000000000000000000000000000815260040160405180910390fd5b3373ffffffffffffffffffffffffffffffffffffffff166004600084815260200190815260200160002060010160009054906101000a900473ffffffffffffffffffffffffffffffffffffffff1673ffffffffffffffffffffffffffffffffffffffff16146109a0576040517fe18d39ad00000000000000000000000000000000000000000000000000000000815260040160405180910390fd5b806004600084815260200190815260200160002060010160006101000a81548173ffffffffffffffffffffffffffffffffffffffff021916908373ffffffffffffffffffffffffffffffffffffffff160217905550600560003373ffffffffffffffffffffffffffffffffffffffff1673ffffffffffffffffffffffffffffffffffffffff1681526020019081526020016000206000815480929190610a4590611a92565b9190505550600560008273ffffffffffffffffffffffffffffffffffffffff1673ffffffffffffffffffffffffffffffffffffffff1681526020019081526020016000206000815480929190610a9a90611a1a565b91905055505050565b806002548110610adf576040517f90675ce600000000000000000000000000000000000000000000000000000000815260040160405180910390fd5b60006003600084815260200190815260200160002090508060050160009054906101000a900460ff16610b3e576040517f0f0c1bc800000000000000000000000000000000000000000000000000000000815260040160405180910390fd5b8060030154816004015410610b7f576040517f2e3b01b600000000000000000000000000000000000000000000000000000000815260040160405180910390fd5b8060020154341015610bbd576040517fcd1c886700000000000000000000000000000000000000000000000000000000815260040160405180910390fd5b6000600154905060016000815480929190610bd790611a1a565b919050555060405180606001604052808581526020013373ffffffffffffffffffffffffffffffffffffffff16815260200160001515815250600460008381526020019081526020016000206000820151816000015560208201518160010160006101000a81548173ffffffffffffffffffffffffffffffffffffffff021916908373ffffffffffffffffffffffffffffffffffffffff16021790555060408201518160010160146101000a81548160ff021916908315150217905550905050600560003373ffffffffffffffffffffffffffffffffffffffff1673ffffffffffffffffffffffffffffffffffffffff1681526020019081526020016000206000815480929190610ce790611a1a565b9190505550816004016000815480929190610d0190611a1a565b91905055508160050160019054906101000a900473ffffffffffffffffffffffffffffffffffffffff1673ffffffffffffffffffffffffffffffffffffffff166108fc83600201549081150290604051600060405180830381858888f19350505050158015610d74573d6000803e3d6000fd5b508160020154341115610dd8573373ffffffffffffffffffffffffffffffffffffffff166108fc836002015434610dab9190611abb565b9081150290604051600060405180830381858888f19350505050158015610dd6573d6000803e3d6000fd5b505b83817f085ec0eff4bf526b0dd054adffcd8bd8da42126a1133ce302042973f32029fb033604051610e099190611697565b60405180910390a350505050565b6060600080600080600080876002548110610e5e576040517f90675ce600000000000000000000000000000000000000000000000000000000815260040160405180910390fd5b6000600360008b81526020019081526020016000206040518060e0016040529081600082018054610e8e9061173c565b80601f0160208091040260200160405190810160405280929190818152602001828054610eba9061173c565b8015610f075780601f10610edc57610100808354040283529160200191610f07565b820191906000526020600020905b815481529060010190602001808311610eea57829003601f168201915b50505050508152602001600182015481526020016002820154815260200160038201548152602001600482015481526020016005820160009054906101000a900460ff161515151581526020016005820160019054906101000a900473ffffffffffffffffffffffffffffffffffffffff1673ffffffffffffffffffffffffffffffffffffffff1673ffffffffffffffffffffffffffffffffffffffff16815250509050806000015181602001518260400151836060015184608001518560a001518660c0015198509850985098509850985098505050919395979092949650565b60056020528060005260406000206000915090505481565b60008060006001548410611041576040517f667ce3b800000000000000000000000000000000000000000000000000000000815260040160405180910390fd5b600060046000868152602001908152602001600020604051806060016040529081600082015481526020016001820160009054906101000a900473ffffffffffffffffffffffffffffffffffffffff1673ffffffffffffffffffffffffffffffffffffffff1673ffffffffffffffffffffffffffffffffffffffff1681526020016001820160149054906101000a900460ff1615151515815250509050806000015181602001518260400151935093509350509193909250565b60008054906101000a900473ffffffffffffffffffffffffffffffffffffffff1681565b600080600090505b600154811015611200578373ffffffffffffffffffffffffffffffffffffffff166004600083815260200190815260200160002060010160009054906101000a900473ffffffffffffffffffffffffffffffffffffffff1673ffffffffffffffffffffffffffffffffffffffff161480156111b75750826004600083815260200190815260200160002060000154145b80156111e457506004600082815260200190815260200160002060010160149054906101000a900460ff16155b156111f3576001915050611206565b8080600101915050611127565b50600090505b92915050565b6000604051905090565b600080fd5b600080fd5b600080fd5b600080fd5b6000601f19601f8301169050919050565b7f4e487b7100000000000000000000000000000000000000000000000000000000600052604160045260246000fd5b6112738261122a565b810181811067ffffffffffffffff821117156112925761129161123b565b5b80604052505050565b60006112a561120c565b90506112b1828261126a565b919050565b600067ffffffffffffffff8211156112d1576112d061123b565b5b6112da8261122a565b9050602081019050919050565b82818337600083830152505050565b6000611309611304846112b6565b61129b565b90508281526020810184848401111561132557611324611225565b5b6113308482856112e7565b509392505050565b600082601f83011261134d5761134c611220565b5b813561135d8482602086016112f6565b91505092915050565b6000819050919050565b61137981611366565b811461138457600080fd5b50565b60008135905061139681611370565b92915050565b600080600080608085870312156113b6576113b5611216565b5b600085013567ffffffffffffffff8111156113d4576113d361121b565b5b6113e087828801611338565b94505060206113f187828801611387565b935050604061140287828801611387565b925050606061141387828801611387565b91505092959194509250565b61142881611366565b82525050565b6000602082019050611443600083018461141f565b92915050565b60006020828403121561145f5761145e611216565b5b600061146d84828501611387565b91505092915050565b600081519050919050565b600082825260208201905092915050565b60005b838110156114b0578082015181840152602081019050611495565b60008484015250505050565b60006114c782611476565b6114d18185611481565b93506114e1818560208601611492565b6114ea8161122a565b840191505092915050565b60008115159050919050565b61150a816114f5565b82525050565b600073ffffffffffffffffffffffffffffffffffffffff82169050919050565b600061153b82611510565b9050919050565b61154b81611530565b82525050565b600060e082019050818103600083015261156b818a6114bc565b905061157a602083018961141f565b611587604083018861141f565b611594606083018761141f565b6115a1608083018661141f565b6115ae60a0830185611501565b6115bb60c0830184611542565b98975050505050505050565b60006060820190506115dc600083018661141f565b6115e96020830185611542565b6115f66040830184611501565b949350505050565b61160781611530565b811461161257600080fd5b50565b600081359050611624816115fe565b92915050565b6000806040838503121561164157611640611216565b5b600061164f85828601611387565b925050602061166085828601611615565b9150509250929050565b6000602082840312156116805761167f611216565b5b600061168e84828501611615565b91505092915050565b60006020820190506116ac6000830184611542565b92915050565b600080604083850312156116c9576116c8611216565b5b60006116d785828601611615565b92505060206116e885828601611387565b9150509250929050565b60006020820190506117076000830184611501565b92915050565b7f4e487b7100000000000000000000000000000000000000000000000000000000600052602260045260246000fd5b6000600282049050600182168061175457607f821691505b6020821081036117675761176661170d565b5b50919050565b60008190508160005260206000209050919050565b60006020601f8301049050919050565b600082821b905092915050565b6000600883026117cf7fffffffffffffffffffffffffffffffffffffffffffffffffffffffffffffffff82611792565b6117d98683611792565b95508019841693508086168417925050509392505050565b6000819050919050565b600061181661181161180c84611366565b6117f1565b611366565b9050919050565b6000819050919050565b611830836117fb565b61184461183c8261181d565b84845461179f565b825550505050565b600090565b61185961184c565b611864818484611827565b505050565b5b818110156118885761187d600082611851565b60018101905061186a565b5050565b601f8211156118cd5761189e8161176d565b6118a784611782565b810160208510156118b6578190505b6118ca6118c285611782565b830182611869565b50505b505050565b600082821c905092915050565b60006118f0600019846008026118d2565b1980831691505092915050565b600061190983836118df565b9150826002028217905092915050565b61192282611476565b67ffffffffffffffff81111561193b5761193a61123b565b5b611945825461173c565b61195082828561188c565b600060209050601f8311600181146119835760008415611971578287015190505b61197b85826118fd565b8655506119e3565b601f1984166119918661176d565b60005b828110156119b957848901518255600182019150602085019450602081019050611994565b868310156119d657848901516119d2601f8916826118df565b8355505b6001600288020188555050505b505050505050565b7f4e487b7100000000000000000000000000000000000000000000000000000000600052601160045260246000fd5b6000611a2582611366565b91507fffffffffffffffffffffffffffffffffffffffffffffffffffffffffffffffff8203611a5757611a566119eb565b5b600182019050919050565b60006040820190508181036000830152611a7c81856114bc565b9050611a8b6020830184611542565b9392505050565b6000611a9d82611366565b915060008203611ab057611aaf6119eb565b5b600182039050919050565b6000611ac682611366565b9150611ad183611366565b9250828203905081811115611ae957611ae86119eb565b5b9291505056fea26469706673582212206d67bf5ca7078ba5ad6af8e1f1f1cd5e60afb27f3652f7a894c92f5fd4da39cc64736f6c634300081c0033",
  "linkReferences": {},
  "deployedLinkReferences": {}
}